:100000000C948F340C94C0340C94C0340C94C034D1
:100010000C94C0340C94CE8F0C94C0340C94C03427
:100020000C94598F0C94C0340C94C0340C94C0348C
:100030000C94C0340C94C0340D943A4A0D949A5ADE
:100040000C94C0340D94C2170C94C0340C94C0347A
:100050000C94C0340C94C0340C94C0340C941581AE
:100060000C94C0340D9408560C94C0340C94C034D5
:100070000C94C0340C94C0340C94C0340C94C03430
:100080000C94C0340C94C0340C94C0340C94C03420
:100090000D94C4550C94C0340C94C0340C94C034EA
:1000A0000C94C0340C94C0340D94A94D0C94C034FD
:1000B0000C94C0340C94C0340C94C0340C94C034F0
:1000C0000C94C0340C94C0340C94C0340D94B259C8
:1000D0000C94C0340C94C0340C94C0340C94C034D0
:1000E0000C94C03431813F814D815A816C81738180
:1000F000B3819581AB815482568254825682548258
:10010000568258825A82F8A801A9A6A875A845A8BF
:10011000F6AB3CA95FAAF5AA4BAB67AB9EAB6901F6
:100120006901C3016901C30157019B017702DB012A
:100130007B012D02D70195027701D3013F027D019A
:1001400077014902EF0141020B028D02B1017B02EE
:10015000CF018B02A702B7015B01BB010302CB01F8
:100160004F01B1026B02A7028102F901F30199016B
:10017000F50127026B0121022302FD0139022F0242
:10018000AD0159018F026501D50123023B02C9016E
:10019000AF015D021B021D021F021502AF028D019D
:1001A0006F02B302D9016101610245028101490177
:1001B00071026D01A10279019701DF01910119021C
:1001C00033022902084AD73B3BCE016E84BCBFFDF7
:1001D000C12F3D6C74319ABD56833DDA3D00C77F17
:1001E00011BED9E4BB4C3E916BAAAABE00000080B0
:1001F0003F05A84CCDB2D44EB93836A9020C50B93F
:10020000918688083CA6AAAA2ABE000000803F0763
:10021000634236B79BD8A71A39685618AEBAAB55A1
:100220008C1D3CB7CC5763BD6DEDFD753EF6177266
:1002300031BF000000803F08000000BE9224491238
:100240003EABAAAA2ABECDCCCC4C3E00000080BE5C
:10025000ABAAAAAA3E00000000BF000000803F0039
:1002600000000000084178D3BB4387D1133D190E2D
:100270003CC3BD4282AD2B3E68EC8276BED98FE195
:10028000A93E4C80EFFFBE01C4FF7F3F000000008D
:1002900000000D9405860D94004D0D944A090D94AF
:1002A000DE4C0D94755B0D94D8AD0D9443060D9402
:1002B000A8040D94184F0D94CA4C0D94874D0D94BD
:1002C0007E620D94E67E0D94C40A0D94314F0D9418
:1002D00015140D94A2040D94E04E0D94CA850D944E
:1002E00029610D9431390D94BD100D9434010D9494
:1002F000D80B0D94B4850D94110C0D94860C0D94AF
:1003000078070D946D830D94A04D0D945D130D949D
:1003100074060D9458050D94C8610D94A57E0D9436
:10032000964D0D9418860D9423050D942C6F0D9405
:10033000A9850D94CC4E0D94AB040D94A8AA0D94F0
:100340001C0D0D9487530D941C050D94E5810D949F
:10035000824D0D94060F0D9485080D940E4F0D944B
:10036000594F0D94C24C0D941E6F0D94180A0D94A4
:10037000C64C0D944D050D94D04C0D94BD060D94B6
:1003800056810D94FD040D94A5040D940E050D9455
:10039000C3020D944F4F0D94D84C0D94E40E0D9460
:1003A000B54C0D94FA4C0D94780C0D943B4F0D9474
:1003B000280C0D94CF7E0D94FF0B0D94044D0D94DD
:1003C00028860D94CC600D9438050D94110F0D9472
:1003D000C97C0D9400150D94FD0A0D9461770D9460
:1003E000A90C0D945E0E0D94F44C0D94D14E0D9409
:1003F000AF810D94F04C0D9470600D94F44E0D94FB
:1004000031050D94914D0D94D44C0D9458090D94D3
:100410008C4D0D942A050D94CF0C0D9416780D94E7
:10042000A35B0D945A640D9454130D94997E0D940E
:10043000D4150D9482850D945A7E0D946A7E0D9488
:100440007C7E0D94EA4E0D94634F0D945F090D94DC
:10045000D64E0D9438850D9442160D941E0C0D94B5
:10046000044F0D9464140D9454850D94540A0D9406
:100470007B090D94FC4E0D94454F0D9405030D948E
:100480008A0C0D94BD0C0D9430060D94FA7E0D94DB
:1004900097060D948C0C0D94EB090D94E70D0D94BB
:1004A000F9040D9415050D9401050D9461600D94EA
:1004B0001D060D9428820D9456060D944C7E0D94C5
:1004C000B9640D94EC7E0D94A50D0D946A060D94FF
:1004D00046050D94F10E0D94E64C0D94310B0D94E0
:1004E000B37E0D94D5850D9469090D94A1090D94E1
:1004F000EE0B0D94094D0D94B14C0D9451090D94D2
:10050000A0530D94EC4C0D94900A0D949B4D0D94BA
:10051000DA5F0D94A54D0D94BB4C0D94BF4C0D941A
:10052000224F0D94F2820D9412830D94570C0D946A
:100530003F050D9473700D9460060D9465130D9432
:10054000CF100D94BF850D94650B0D948B820D9487
:10055000F94C0D9405050D946D0E0D943F610D94AD
:100560009F7E0D94E24C0D94C17E6E616E00696EAB
:1005700066004E414E494E495459494E46CDCCCC69
:100580003D0AD7233C17B7D13877CC2B329595E667
:10059000241FB14F0A000020410000C84200401C47
:1005A0004620BCBE4CCA1B0E5AAEC59D7400407A94
:1005B00010F35A00A0724E18090010A5D4E80000EC
:1005C000E87648170000E40B54020000CA9A3B008A
:1005D0000000E1F505000080969800000040420F01
:1005E000000000A08601000000102700000000E8C5
:1005F00003000000006400000000000A000000008A
:10060000000100000000002C76D888DC674F08232A
:10061000DFC1DFAE59E1B1B796E5E3E453C63AE690
:1006200051997696E8E6C28426EB898C9B62ED4070
:100630007C6FFCEFBC9C9F40F2BAA56FA5F49005BF
:100640005A2AF75C936B6CF9676DC11BFCE0E40DF3
:1006500047FEF520E6B500D0ED902E0300943577E7
:10066000050080841E080000204E0A000000C80C0F
:10067000333333330F986E12831141EF8D21148978
:100680003BE65516CFFEE6DB18D1844B381BF77CD2
:100690001D901DA4BBE424203284725E228100C917
:1006A000F124ECA1E53D276364696E6F7073757882
:1006B000585B0025642062797465732077726974D1
:1006C00074656E20746F20454550524F4D20617403
:1006D000206164647265737320307825303478004B
:1006E0004433202D20526561642F57726974652050
:1006F000454550524F4D0A0020436F756E74205887
:100700003A20005344207072696E74696E672062EB
:1007100079746520004E6F7420696E206661726D79
:10072000206D6F64652E004163746976652045789D
:100730007472756465723A2000496E76616C696402
:10074000206578747275646572005A204F6666730E
:10075000657400556E6B6E6F776E20636F6D6D61A3
:100760006E643A2022004D32303020496E76616C42
:10077000696420657874727564657220007A5F6DB3
:1007800061783A20007A5F6D696E3A2000795F6D7A
:1007900061783A2000795F6D696E3A2000785F6D6C
:1007A00061783A20006F70656E00545249474745A2
:1007B00052454400785F6D696E3A20005265706F53
:1007C0007274696E6720656E6473746F70207374E1
:1007D000617475730053494C454E54004E4F524D51
:1007E000414C002553204D4F44453A2050657263DB
:1007F000656E7420646F6E653A2025643B207072CC
:10080000696E742074696D652072656D61696E69C9
:100810006E6720696E206D696E733A2025640A0048
:10082000456E642066696C65206C6973740042656E
:1008300067696E2066696C65206C697374000A5084
:10084000494E44412074656D7065726174757265BE
:100850003A20252E3166205A207368696674202854
:100860006D6D293A20252E3366000A537465703A5F
:100870002025642F360A000A537465703A202564D7
:100880002F362028736B6970706564290A50494EB1
:1008900044412074656D70657261747572653A20AB
:1008A0002564205A20736869667420286D6D293A82
:1008B000300A000A5A45524F3A20252E33660A0064
:1008C00073746172742074656D7065726174757291
:1008D000653A20252E31660A0025642020252E3217
:1008E0006600255320583A20252E356620593A2097
:1008F000252E3566205A3A20252E35660A00536C7F
:100900006565702E2E2E004E6F7420696E20666114
:10091000726D206D6F64652E0025640045303A25A8
:10092000642052504D0A50524E303A2564205250A5
:100930004D0A00256400442D31202D20456E646C45
:10094000657373206C6F6F700A00416476616E632B
:1009500065204B3D004B206F7574206F6620616CE5
:100960006C6F7765642072616E676521004D32326D
:10097000302053256900255346696C616D656E749E
:100980002073657474696E67733A20446973616299
:100990006C65640A00255346696C616D656E742050
:1009A00073657474696E67733A0A25532020204D6D
:1009B0003230302044252E32660A002553526574A9
:1009C000726163743A20533D4C656E6774682028E9
:1009D0006D6D2920463A537065656420286D6D2F32
:1009E0006D29205A3A205A4C69667420286D6D2969
:1009F0000A25532020204D3230372053252E3266D1
:100A00002046252E3266205A252E32660A2553525C
:100A100065636F7665723A20533D45787472612044
:100A20006C656E67746820286D6D2920463A537096
:100A300065656420286D6D2F6D290A2553202020BF
:100A40004D3230382053252E32662046252E326610
:100A50000A25534175746F2D526574726163743A3F
:100A600020533D3020746F2064697361626C652C83
:100A7000203120746F20696E746572707265742005
:100A8000657874727564652D6F6E6C79206D6F7604
:100A90006573206173207265747261637473206F73
:100AA00072207265636F7665726965730A255320DB
:100AB00020204D323039205325640A0025535049F7
:100AC0004420686561746265642073657474696E3E
:100AD00067733A0A25532020204D333034205025A7
:100AE0002E32662049252E32662044252E32660A93
:100AF0000025535049442073657474696E67733AD6
:100B00000A25532020204D3330312050252E3266C7
:100B10002049252E32662044252E32660A002553B0
:100B200053746570732070657220756E69743A0A2B
:100B3000255320204D39322058252E326620592544
:100B40002E3266205A252E32662045252E32660A20
:100B500025535553746570207265736F6C75746995
:100B60006F6E3A200A2553204D33353020582564C6
:100B700020592564205A2564204525640A25534DB3
:100B80006178696D756D2066656564726174657301
:100B9000202D206E6F726D616C20286D6D2F732972
:100BA0003A0A255320204D3230332058252E326604
:100BB0002059252E3266205A252E32662045252EB4
:100BC00032660A25534D6178696D756D20666565DD
:100BD000647261746573202D20737465616C746830
:100BE00020286D6D2F73293A0A255320204D32306D
:100BF000332058252E32662059252E3266205A255C
:100C00002E32662045252E32660A25534D617869BD
:100C10006D756D20616363656C65726174696F6E7B
:100C2000202D206E6F726D616C20286D6D2F7332D8
:100C3000293A0A255320204D3230312058256C7531
:100C40002059256C75205A256C752045256C750A30
:100C500025534D6178696D756D20616363656C65C1
:100C6000726174696F6E202D20737465616C746895
:100C700020286D6D2F7332293A0A255320204D32DA
:100C800030312058256C752059256C75205A256CFB
:100C9000752045256C750A2553416363656C657243
:100CA0006174696F6E3A20533D616363656C657270
:100CB0006174696F6E2C20543D7265747261637447
:100CC00020616363656C65726174696F6E0A255398
:100CD00020204D3230342053252E32662054252ECC
:100CE00032660A2553416476616E636564207661DD
:100CF000726961626C65733A20533D4D696E20667E
:100D00006565647261746520286D6D2F73292C20D0
:100D1000543D4D696E2074726176656C2066656520
:100D2000647261746520286D6D2F73292C20423DFB
:100D30006D696E696D756D207365676D656E742084
:100D400074696D6520286D73292C20583D6D61787C
:100D5000696D756D205859206A65726B20286D6D1C
:100D60002F73292C20205A3D6D6178696D756D2097
:100D70005A206A65726B20286D6D2F73292C2020F4
:100D8000453D6D6178696D756D2045206A65726BB2
:100D900020286D6D2F73290A255320204D323035C0
:100DA0002053252E32662054252E32662042252ED1
:100DB00032662058252E32662059252E3266205A5A
:100DC000252E32662045252E32660A2553486F6D42
:100DD00065206F666673657420286D6D293A0A2553
:100DE0005320204D3230362058252E32662059258A
:100DF0002E3266205A252E32660A004625642025AA
:100E0000640A004D4D55203C3D2027462564202591
:100E100064270A00504944204175746F74756E65EB
:100E20002066696E6973686564212050757420744A
:100E30006865206C617374204B702C204B692061B5
:100E40006E64204B6420636F6E7374616E747320E4
:100E500066726F6D2061626F766520696E746F20B7
:100E6000436F6E66696775726174696F6E2E680094
:100E7000504944204175746F74756E6520666169D0
:100E80006C6564212074696D656F75740020403A4B
:100E900000543A00423A00504944204175746F743E
:100EA000756E65206661696C6564212054656D709E
:100EB0006572617475726520746F6F206869676808
:100EC00000204B643A2000204B693A2000204B70F0
:100ED0003A200020436C61737369632050494420B9
:100EE000002054753A2000204B753A2000206D6197
:100EF000783A2000206D696E3A200020643A200084
:100F000020626961733A200020453A00205A3A0075
:100F100020593A0020453A00205A3A0020593A0018
:100F2000583A00005A30005A310059300059310007
:100F3000583000583100456E642073746F70732010
:100F400064696167002E0044656C6574696F6E208A
:100F50006661696C65642C2046696C653A200046C0
:100F6000696C652064656C657465643A000A002FDD
:100F7000000A004E6F74205344207072696E7469C9
:100F80006E67005072696E742073617665640053F9
:100F900044207072696E7420706175736564004FCF
:100FA0004B004241440052414D426F2046414E2089
:100FB0000043524153485F43414E43454C00435226
:100FC0004153485F5245434F5645520043524153A7
:100FD000485F5245434F564552002228322900545B
:100FE000004475706C696361746520542D636F648F
:100FF000652069676E6F7265642E0A004475706CB7
:10100000696361746520542D636F64652069676E40
:101010006F7265642E0A00496E76616C69642054B3
:1010200020636F64652E00556E6B6E6F776E204D7A
:1010300020636F64653A202573200A006E6F207666
:10104000616C696420636F6D6D616E64002C2000BB
:101050002C20002C20006E2F61002C20002C200062
:101060002C20006E2F61002F00503A0057616974E8
:1010700020666F722050494E44412074617267654A
:10108000742074656D70657261747572653A004C98
:10109000414E472053454C20464F52434544002281
:1010A0002831290030303030303030302D30303081
:1010B000302D303030302D303030302D3030303039
:1010C00030303030303030300020555549443A000F
:1010D00031002045585452554445525F434F554EB8
:1010E000543A004649524553204D4B3346207633FF
:1010F0002E392E304100204D414348494E455F5422
:101100005950453A00312E300020626173656420E9
:101110006F6E204D61726C696E204649524D574189
:1011200052455F55524C3A68747470733A2F2F676A
:1011300069746875622E636F6D2F70727573613399
:10114000642F50727573612D4669726D7761726597
:101150002050524F544F434F4C5F56455253494FC6
:101160004E3A004649524D574152455F4E414D451A
:101170003A50727573612D4669726D7761726520A0
:10118000004D31313320530020423A0020453A00CF
:10119000543A0020413A0020503A002042403A00A0
:1011A00020403A00202F003A00205400202F002039
:1011B000423A00202F006F6B20543A002569206DC1
:1011C000696E2C2025692073656300496E76616C19
:1011D0006964204D20636F64653A202573200A00FE
:1011E000556E6B6E6F776E204720636F64653A2093
:1011F0002573200A004D65736820626564206C6564
:1012000076656C696E67206E6F74206163746976B1
:10121000652E000A002020000A4D65617375726515
:101220006420706F696E74733A000A5A20736561A6
:10123000726368206865696768743A20002C004E04
:10124000756D20582C593A2000206D6963726F6EBD
:101250007300457863657373697665206265642001
:101260006C6576656C696E6720636F727265637416
:10127000696F6E3A2000426564206C6576656C6922
:101280006E67206661696C65642E2053656E736FAE
:10129000722074726967676572656420746F6F206D
:1012A000686967682E0A00426564206C6576656C23
:1012B000696E67206661696C65642E2053656E7384
:1012C0006F7220646973636F6E6E6563746564200A
:1012D0006F72206361626C652062726F6B656E2E47
:1012E0000A004732382057300050494E44412070A0
:1012F000726F62652063616C6962726174696F6E9E
:1013000020737461727400473238205730004D32B8
:1013100034005345545F43484F505F005345545F7A
:10132000535445505F005345545F574156455F0045
:10133000544D435F0043524153485F00472D636F54
:10134000646520736C6963656420666F7220612038
:10135000646966666572656E74206C6576656C2E70
:1013600020436F6E74696E75653F00472D636F642F
:101370006520736C6963656420666F722061206408
:101380006966666572656E74206C6576656C2E2084
:10139000506C656173652072652D736C696365209F
:1013A000746865206D6F64656C20616761696E2E7D
:1013B000205072696E742063616E63656C6C656445
:1013C0002E00472D636F646520736C69636564202C
:1013D000666F722061206E65776572206669726D36
:1013E000776172652E20506C65617365207570643D
:1013F00061746520746865206669726D77617265D5
:101400002E205072696E742063616E63656C6C652A
:10141000642E00472D636F646520736C6963656497
:1014200020666F722061206E657765722066697232
:101430006D776172652E20436F6E74696E75653FBE
:1014400000472D636F646520736C69636564206673
:101450006F72206120646966666572656E742070C3
:1014600072696E74657220747970652E20506C6597
:101470006173652072652D736C696365207468659E
:10148000206D6F64656C20616761696E2E205072FB
:10149000696E742063616E63656C6C65642E0047D1
:1014A0002D636F646520736C6963656420666F7279
:1014B000206120646966666572656E742070726969
:1014C0006E74657220747970652E20436F6E746936
:1014D0006E75653F00472D636F646520736C6963AB
:1014E000656420666F722061206469666665726556
:1014F0006E74207072696E74657220747970652ED6
:1015000020436F6E74696E75653F00472D636F648D
:101510006520736C6963656420666F722061206466
:101520006966666572656E74207072696E74657244
:1015300020747970652E20506C656173652072652A
:101540002D736C69636520746865206D6F64656CCC
:1015500020616761696E2E205072696E742063612C
:101560006E63656C6C65642E005072657373206BDE
:101570006E6F6220746F2070726568656174206E92
:101580006F7A7A6C6520616E6420636F6E74696E29
:1015900075652E00506C656173652070726573739C
:1015A00020746865206B6E6F6220746F20756E6C9E
:1015B0006F61642066696C616D656E740052656D63
:1015C0006F7665206F6C642066696C616D656E7402
:1015D00020616E6420707265737320746865206B7F
:1015E0006E6F6220746F207374617274206C6F610F
:1015F00064696E67206E65772066696C616D656EE3
:10160000742E00616E642070726573732074686557
:10161000206B6E6F6200496E736572742066696C30
:10162000616D656E7400436F6C6F72206E6F742015
:10163000636F72726563740046696C616D656E7488
:10164000206E6F74206C6F61646564004368616E26
:1016500067656420636F72726563746C793F004CD8
:101660006F6164696E6720636F6C6F7200436861BD
:101670006E676520737563636573732100506C65D5
:10168000617365206F70656E2069646C657220619E
:101690006E642072656D6F76652066696C616D653C
:1016A0006E74206D616E75616C6C792E005761737C
:1016B0002066696C616D656E7420756E6C6F616417
:1016C000207375636365737366756C3F00506C655A
:1016D00061736520757067726164652E004E657771
:1016E000206669726D776172652076657273696FC5
:1016F0006E20617661696C61626C653A0057616960
:1017000074696E6720666F722050494E44412070A4
:10171000726F626520636F6F6C696E670043726100
:1017200073682064657465637465642E2052657304
:10173000756D65207072696E743F004372617368E5
:101740002064657465637465642E004578747275F1
:101750006465720043686F6F736520657874727595
:101760006465723A0043686F6F73652066696C61E7
:101770006D656E743A004E6F206D6F76652E005762
:1017800061697420666F7220757365722E2E2E004B
:10179000536F6D652070726F626C656D20656E634E
:1017A0006F756E74657265642C205A2D6C65766554
:1017B0006C696E6720656E666F72636564202E2E9D
:1017C0002E00537461626C6520616D6269656E7490
:1017D0002074656D70657261747572652032312D8B
:1017E000323643206973206E65656465642061202C
:1017F0007269676964207374616E64206973207212
:10180000657175697265642E00506C656173652041
:1018100072756E2058595A2063616C6962726174E6
:10182000696F6E2066697273742E007374617274CE
:101830000A006164635F696E69740A000A204649A0
:101840005245532044455349474E200A20693320CE
:101850004D4B33462D4D2D425400436F6E74696ECF
:101860007565207769746820616E6F746865722091
:10187000626F7764656E3F002500202020202020C5
:10188000002020202020200045524153494E47206F
:10189000616C6C206461746100466163746F72797D
:1018A00020524553455400466163746F727920524B
:1018B0004553455400202873656E736F7220626F24
:1018C000617264207265766973696F6E3A25532977
:1018D0000A0044495341424C454400454E41424C64
:1018E0004544004653656E736F7220255300494E80
:1018F0005434004D4B33534D4D553253004E4F4DE4
:101900004B3353002E014A756E2031302032303275
:101910003000436F6D70696C65643A2000286E6F0B
:101920006E652C2064656661756C7420636F6E66ED
:10193000696729004A756E203130203230323020FC
:1019400031373A31343A34360020332E392E302DA7
:10195000333432310A002055706C6F616420696E37
:101960002070726F677265737300205A3A002059B5
:101970003A0020583A0043524153485F4445544589
:101980004354454458590043524153485F444554D9
:101990004543544544590043524153485F444554DC
:1019A000454354454458004D3239004578746572BA
:1019B0006E616C2053504920666C6173680A57321F
:1019C00035583230434C206973206E6F7420726535
:1019D000732D0A706F6E64696E672E204C616E679E
:1019E000756167650A73776974636820756E6176DF
:1019F00061696C61626C652E004372617368446555
:101A0000746563742044495341424C454400437219
:101A100061736844657465637420454E41424C456A
:101A2000442100573235583230434C206E6F7420B9
:101A3000726573706F6E64696E672E0A00202050A5
:101A40006C616E6E65724275666665724279746528
:101A5000733A20002046726565204D656D6F72797E
:101A60003A2000207C20417574686F723A20002073
:101A70004C61737420557064617465643A20002071
:101A8000536F6674776172652052657365740020C8
:101A90005761746368646F672052657365740020D2
:101AA00042726F776E206F75742052657365740093
:101AB0002045787465726E616C20526573657400A0
:101AC000506F7765725570006572726F7220777211
:101AD0006974696E6720746F2066696C6500656E55
:101AE0006473746F7073206869743A2000446F6E79
:101AF0006520736176696E672066696C652E006F7C
:101B00006B0020302E33206F72206F6C6465720082
:101B100020302E34206F72206E65776572004D4B39
:101B20003353206669726D776172652064657465F0
:101B300063746564206F6E204D4B33207072696E44
:101B4000746572004649524553204D4B334620760A
:101B5000332E392E3041204F4B2E00426C61636B87
:101B60006F7574206F636375727265642E205265A1
:101B7000636F766572207072696E743F0053656C96
:101B800066746573742077696C6C20626520727569
:101B90006E20746F2063616C69627261746520618C
:101BA000636375726174652073656E736F726C65C3
:101BB0007373207265686F6D696E672E0054686577
:101BC0007265206973207374696C6C2061206E6586
:101BD000656420746F206D616B65205A2063616CB1
:101BE0006962726174696F6E2E20506C65617365F5
:101BF00020666F6C6C6F7720746865206D616E7500
:101C0000616C2C2063686170746572204669727320
:101C1000742073746570732C2073656374696F6EC0
:101C20002043616C6962726174696F6E20666C6FCB
:101C3000772E005072696E74657220686173206E31
:101C40006F74206265656E2063616C696272617495
:101C50006564207965742E20506C6561736520661B
:101C60006F6C6C6F7720746865206D616E75616C48
:101C70002C206368617074657220466972737420E9
:101C800073746570732C2073656374696F6E204381
:101C9000616C6962726174696F6E20666C6F772E19
:101CA000004F6C642073657474696E677320666F8F
:101CB000756E642E2044656661756C7420504944CD
:101CC0002C20457374657073206574632E207769CA
:101CD0006C6C206265207365742E005761726E69AA
:101CE0006E673A20626F7468207072696E746572F4
:101CF000207479706520616E64206D6F7468657200
:101D0000626F6172642074797065206368616E67C8
:101D100065642E005761726E696E673A2070726951
:101D20006E7465722074797065206368616E676592
:101D3000642E005761726E696E673A206D6F746829
:101D40006572626F61726420747970652063686186
:101D50006E6765642E00312E3000312E3500554EF1
:101D60004B4E4F574E004C413130433A204C696E38
:101D700065617220416476616E6365206D6F646594
:101D80003A20004C413130433A2041646A75737403
:101D9000656420452D4A65726B3A2000000E1315CC
:101DA000110E00000004120912040000001C1F1193
:101DB000111F00000006191803130C00040E1F0465
:101DC0001C000000040A0A0A0A11110E001F151156
:101DD000151F0000000103161C0800000000110A76
:101DE00004110A040C12120C000000002563252DBA
:101DF00031382E3138532563005B25735D25630030
:101E00005B25535D2563002563252D31382E313840
:101E10005300252E31305320002563252D31382ED7
:101E20003138732563002563252D2E31365320006C
:101E30002563252E3135533A2573253364004578C3
:101E400072656D65207370616E206F6620746865C1
:101E5000205A2076616C7565732100426564206CA0
:101E60006576656C696E67206661696C65642E20B5
:101E700053656E736F72206469646E742074726946
:101E8000676765722E20446562726973206F6E20E9
:101E90006E6F7A7A6C653F2057616974696E67204E
:101EA000666F722072657365742E00222066616908
:101EB0006C65643A204275666665722066756C6C66
:101EC00021002200256920686F7572732025692022
:101ED0006D696E757465730054494D454F55543A9C
:101EE000004D3131300046756C6C205258204275DF
:101EF0006666657200437573746F6D00546578741F
:101F0000757200536D6F6F74680047312059252D2D
:101F10002E32662045252D2E336600473120582568
:101F2000642059252D2E32662045252D2E3366003E
:101F30006673656E736F725F636865636B706F69FC
:101F40006E745F7072696E740A006673656E736F8B
:101F5000722076302E3420696E206661756C742094
:101F600072616E676520342E362D3556202D207512
:101F70006E636F6E6E65637465640A006673656E8A
:101F8000736F7220696E20666F7262696464656E39
:101F90002072616E676520312E352D3356202D203D
:101FA000626164206C657665720A00656E717565A4
:101FB000696E67202200446F6E65207072696E74CE
:101FC000696E672066696C65004D3131322063614E
:101FD0006C6C65642E20456D657267656E63792053
:101FE00053746F702E005072696E74657220737432
:101FF0006F707065642064756520746F20657272FF
:102000006F72732E2046697820746865206572723D
:102010006F7220616E6420757365204D39393920E7
:10202000746F20726573746172742E202854656D0C
:10203000706572617475726520697320726573656D
:10204000742E205365742069742061667465722053
:1020500072657374617274696E6729004E6F204CEB
:10206000696E65204E756D626572207769746820AF
:10207000636865636B73756D2C204C617374204CC1
:10208000696E653A20004E6F20436865636B737517
:102090006D2077697468206C696E65206E756D625D
:1020A00065722C204C617374204C696E653A200077
:1020B000636865636B73756D206D69736D617463BF
:1020C000682C204C617374204C696E653A20004C7A
:1020D000696E65204E756D626572206973206E6F42
:1020E00074204C617374204C696E65204E756D626E
:1020F00065722B312C204C617374204C696E653AEB
:10210000200053544F505045442E20004D3630305F
:10211000006673656E736F725F75706461746520BD
:102120002D204D3630300A0049522073656E736F92
:1021300072206E6F7420726573706F6E64696E6763
:102140002028256429210A0020573A0020453A001A
:10215000543A005A206C6976652061646A7573741C
:10216000206F7574206F662072616E67652E205334
:10217000657474696E6720746F20302E20436C691B
:10218000636B20746F20636F6E74696E75652E00CB
:102190005A206C6976652061646A757374206F7566
:1021A00074206F662072616E67652E2053657474AB
:1021B000696E6720746F20300020423A0020453A53
:1021C00000543A00494E54340048656174696E67A2
:1021D0002064697361626C65642062792073616652
:1021E0006574792074696D65722E004653207630CF
:1021F0002E34206F72206E6577657200496E6163C0
:102200007469766974792053687574646F776E00A9
:102210004B494C4C45442E20005072696E746572D7
:102220002068616C7465642E206B696C6C282920B1
:1022300063616C6C656421004B494C4C3A20256409
:102240000A004D32323120496E76616C6964206536
:102250007874727564657220004D32313820496E91
:1022600076616C69642065787472756465722000AB
:102270004D31303920496E76616C6964206578741F
:10228000727564657220004D31303520496E76617B
:102290006C696420657874727564657220004D31D4
:1022A000303420496E76616C69642065787472758B
:1022B0006465722000504F5745522050414E4943AB
:1022C0002044455445435445440055564C4F202D19
:1022D00020656E642025640A0055564C4F5F5449B2
:1022E0004E59202D20656E642025640A006F6B0A0C
:1022F0000073746172740A004D4D55322066697224
:102300006D776172652076657273696F6E20696E94
:1023100076616C69642E20526571756972656420FE
:1023200076657273696F6E3A206275696C64206EAF
:10233000756D626572202564206F72206869676818
:1023400065722E004D4D55203D3E20276F6B270AAC
:10235000004D4D55203D3E20276F6B270A00256418
:10236000004D4D55203D3E20276F6B272C20726578
:1023700073756D65207072696E740A004D4D55203D
:10238000726574727920617474656D7074206E72F8
:102390002E2025640A004D4D55203D3E20276F6BB1
:1023A000270A00410A004D4D55203C3D202741277A
:1023B0000A004D363030004D363030204155544FF4
:1023C000002568687500410A004D4D55203C3D20B0
:1023D0002741270A0050300A004D25640A004D4D60
:1023E00055203C3D20274D2564270A0057300A0020
:1023F0004D4D55203C3D20275730270A0053330AC6
:10240000004D4D55203C3D20275333270A005230C4
:102410000A004D4D55203C3D20275230270A004BE5
:1024200025640A004D4D55203C3D20274B2564274F
:102430000A004525640A004D4D55203C3D202745A6
:102440002564270A0055300A004D4D55203C3D209B
:10245000275530270A0043300A004D4D55203C3D9A
:1024600020274330270A004C25640A004D4D552093
:102470003C3D20274C2564270A005425640A004D62
:102480004D55203C3D2027542564270A004D4D55CD
:10249000202D20454E41424C45440025686875007A
:1024A00050300A004D310A004D4D55203C3D20274B
:1024B0004D31270050300A004D4D5520766572731E
:1024C000696F6E2076616C6964004D4D55203D3E0C
:1024D000202725646F6B270A0025750053320A00F8
:1024E0004D4D55203C3D2027533227004D4D552062
:1024F0003D3E202725646F6B270A002575004D4D52
:1025000055206E6F7420726573706F6E64696E67AC
:10251000202D2044495341424C45440053310A0088
:102520004D4D55203C3D2027533127004D4D552022
:102530003D3E2027737461727427006572726F725A
:102540003A20756E6B6E6F776E206D6F76650A0040
:102550006E6F206D6F76650A00542D636F64650A97
:1025600000756E6C6F61640A006C6F61640A006DC7
:102570006D755F6765745F726573706F6E736520EC
:102580002D20626567696E206D6F76653A20006D5B
:102590006D755F6765745F726573706F6E736528C4
:1025A000292072657475726E696E673A2025640A17
:1025B00000556E6C6F6164696E672066696E697341
:1025C00068656420320A00556E6C6F616420320ABF
:1025D00000556E6C6F6164696E672066696E697321
:1025E00068656420310A00556E6C6F616420310AA1
:1025F000004D4D5520737461727473207265737051
:102600006F6E64696E670A004D4D55206E6F7420C1
:10261000726573706F6E64696E670A0046696C61FB
:102620006D656E74206F7574206F662072616E67C1
:1026300065202564200A000000803F555585410033
:1026400000803F0000C84100000040555505420091
:1026500000C03F0000484200002040555585420020
:102660000070C1ABAAA642000060C10000A04100FA
:1026700000C0C00000204100002041ABAA3A410048
:102680000020C15555D540000048C2555505424D62
:10269000373031204534004D373031204533004D3F
:1026A000373031204532004D373031204531004D33
:1026B0003730312045300046696C616D656E74209D
:1026C0006E72206F7574206F662072616E6765216F
:1026D00000206661696C65642E0020737563636514
:1026E000656465642E004D4D552063616E5F6C6FAF
:1026F00061643A004164646974696F6E616C206C56
:102700006F616420617474656D7074206E722E2028
:1027100025640A00506C656173652075706461748E
:1027200065206669726D7761726520696E20796FC8
:102730007572204D4D55322E2057616974696E6750
:1027400020666F722072657365742E004D4D5520A2
:102750004F4B2E20526573756D696E672E2E2E00BD
:102760004D4D55204F4B2E20526573756D696E6728
:1027700020706F736974696F6E2E2E2E004D4D554B
:10278000204F4B2E20526573756D696E67207465FE
:102790006D70657261747572652E2E2E00466978B3
:1027A0002074686520697373756520616E64207498
:1027B00068656E20707265737320627574746F6ED5
:1027C000206F6E204D4D5520756E69742E0050722D
:1027D00065737320746865206B6E6F6220746F2060
:1027E000726573756D65206E6F7A7A6C652074659D
:1027F0006D70657261747572652E004D4D55206E59
:1028000065656473207573657220617474656E7498
:10281000696F6E2E0043757474696E672066696C0B
:10282000616D656E7400506C656173652072656DD5
:102830006F76652066696C616D656E7420616E648B
:10284000207468656E2070726573732074686520EB
:102850006B6E6F622E00456A656374696E672066F1
:10286000696C616D656E74004D4D55206C6F6164CF
:10287000206661696C656420202020200025632586
:1028800033642F2564256300776F726C6420636F57
:102890006F7264696E617465733A2028252E336601
:1028A0002C20252E33662C20252E3366290A004342
:1028B000757272656E7420706F73205A5F4158494B
:1028C000533A252E33660A43757272656E74207012
:1028D0006F7320455F415849533A252E33660A00ED
:1028E00041667465722077616974696E6720666FEE
:1028F000722074656D703A0A43757272656E742049
:10290000706F7320585F415849533A252E33660A39
:1029100043757272656E7420706F7320595F4158F1
:1029200049533A252E33660A007265636F766572E5
:102930005F6D616368696E655F73746174655F6123
:10294000667465725F706F7765725F70616E6963E0
:102950002C20696E697469616C2000505255534196
:102960002075766C6F004734205330004D3236208E
:1029700053256C75004D3130362053004D323230C6
:102980002053256400473120462564004D3832002D
:102990004739322045004731204525302E33662007
:1029A0004632373030004731205A256600505255A4
:1029B0005341204D424C2056310047312058256666
:1029C0002059256620463330303000506F736974CB
:1029D000696F6E20726561642066726F6D20656537
:1029E00070726F6D3A004D3233202573002E67638D
:1029F0006F002C20666565646D756C7469706C7908
:102A00003A0046656564726174653A004731204555
:102A1000252D302E336620463237303000473120A6
:102A200045352046313230004D3833004D31303994
:102A300020532564004D31393020532564004D3139
:102A4000303420532564004732382058205900473D
:102A500031205A252E336620463830300047312049
:102A60005A252D302E33662046252D302E33660014
:102A700047312045252D302E336620463237303001
:102A8000004D38330000002110422063308440A5FF
:102A900050C660E770088129914AA16BB18CC1AD25
:102AA000D1CEE1EFF13112100273325222B55294BD
:102AB00042F772D662399318837BB35AA3BDD39C75
:102AC000C3FFF3DEE36224433420040114E664C749
:102AD00074A44485546AA54BB528850995EEE5CFC5
:102AE000F5ACC58DD55336722611163006D776F65D
:102AF000669556B4465BB77AA719973887DFF7FE15
:102B0000E79DD7BCC7C448E5588668A778400861E8
:102B10001802282338CCC9EDD98EE9AFF948896964
:102B2000990AA92BB9F55AD44AB77A966A711A50FC
:102B30000A333A122AFDDBDCCBBFFB9EEB799B58B4
:102B40008B3BBB1AABA66C877CE44CC55C222C0388
:102B50003C600C411CAEED8FFDECCDCDDD2AAD0B04
:102B6000BD688D499D977EB66ED55EF44E133E329C
:102B70002E511E700E9FFFBEEFDDDFFCCF1BBF3A54
:102B8000AF599F788F8891A981CAB1EBA10CD12D43
:102B9000C14EF16FE18010A100C230E32004502546
:102BA0004046706760B9839893FBA3DAB33DC31CBA
:102BB000D37FE35EF3B1029012F322D23235421496
:102BC0005277625672EAB5CBA5A89589856EF54F06
:102BD000E52CD50DC5E234C324A0148104667447E6
:102BE0006424540544DBA7FAB79987B8975FE77E5A
:102BF000F71DC73CD7D326F2369106B01657667636
:102C000076154634564CD96DC90EF92FE9C899E9A5
:102C1000898AB9ABA94458654806782768C018E185
:102C2000088238A3287DCB5CDB3FEB1EFBF98BD8F9
:102C30009BBBAB9ABB754A545A376A167AF10AD0D5
:102C40001AB32A923A2EFD0FED6CDD4DCDAABD8B45
:102C5000ADE89DC98D267C076C645C454CA23C8325
:102C60002CE01CC10C1FEF3EFF5DCF7CDF9BAFBA99
:102C7000BFD98FF89F176E367E554E745E932EB275
:102C80003ED10EF01E7C3C3E3F2F2A225C00526556
:102C9000636F766572696E67207072696E7420204A
:102CA000202000506C65617365207761697400585D
:102CB000595A2063616C6962726174696F6E206138
:102CC0006C6C2072696768742E20536B657720776F
:102CD000696C6C20626520636F72726563746564F1
:102CE000206175746F6D61746963616C6C792E001D
:102CF00058595A2063616C6962726174696F6E2001
:102D0000616C6C2072696768742E20582F5920619D
:102D10007865732061726520736C696768746C797B
:102D200020736B657765642E20476F6F64206A6F30
:102D300062210058595A2063616C6962726174693A
:102D40006F6E206F6B2E20582F592061786573208D
:102D50006172652070657270656E646963756C611F
:102D6000722E20436F6E67726174756C6174696F47
:102D70006E73210058595A2063616C6962726174E4
:102D8000696F6E206661696C65642E2052696768A0
:102D9000742066726F6E742063616C696272617414
:102DA000696F6E20706F696E74206E6F742072652B
:102DB00061636861626C652E0058595A2063616CCA
:102DC0006962726174696F6E206661696C65642EF8
:102DD0002046726F6E742063616C696272617469FF
:102DE0006F6E20706F696E7473206E6F74207265E1
:102DF00061636861626C652E0058595A2063616C8A
:102E00006962726174696F6E206661696C65642EB7
:102E100020506C6561736520636F6E73756C7420F0
:102E2000746865206D616E75616C2E0058595A206A
:102E300063616C6962726174696F6E20636F6D703B
:102E4000726F6D697365642E2052696768742066BD
:102E5000726F6E742063616C6962726174696F6E07
:102E600020706F696E74206E6F7420726561636884
:102E700061626C652E0058595A2063616C696272F8
:102E80006174696F6E20636F6D70726F6D697365C9
:102E9000642E2046726F6E742063616C6962726189
:102EA00074696F6E20706F696E7473206E6F74201A
:102EB000726561636861626C652E0058595A2063BF
:102EC000616C6962726174696F6E206661696C65BC
:102ED000642E204265642063616C6962726174696A
:102EE0006F6E20706F696E7420776173206E6F74DF
:102EF00020666F756E642E00506C6561736520707E
:102F00006C61636520737465656C207368656574B6
:102F1000206F6E20686561746265642E0044697379
:102F200074616E6365206265747765656E2074698F
:102F300070206F6620746865206E6F7A7A6C6520E9
:102F4000616E6420746865206265642073757266C2
:102F500061636520686173206E6F74206265656EC1
:102F600020736574207965742E20506C65617365DB
:102F700020666F6C6C6F7720746865206D616E756C
:102F8000616C2C206368617074657220466972738D
:102F9000742073746570732C2073656374696F6E2D
:102FA000204669727374206C617965722063616C6C
:102FB0006962726174696F6E2E00506C6163652086
:102FC00061207368656574206F662070617065723A
:102FD00020756E64657220746865206E6F7A7A6CF5
:102FE0006520647572696E67207468652063616C22
:102FF0006962726174696F6E206F662066697273B0
:1030000074203420706F696E74732E2049662074AA
:103010006865206E6F7A7A6C652063617463686599
:1030200073207468652070617065722C20706F77F2
:103030006572206F666620746865207072696E74B0
:10304000657220696D6D6564696174656C792E00C7
:10305000506C656173652072656D6F766520737461
:1030600065656C2073686565742066726F6D206895
:103070006561746265642E00497320737465656CC4
:10308000207368656574206F6E2068656174626581
:10309000643F00206F662034005365617263686985
:1030A0006E67206265642063616C69627261746935
:1030B0006F6E20706F696E7400206F662039004D4E
:1030C0006561737572696E67207265666572656E9B
:1030D000636520686569676874206F662063616C4A
:1030E0006962726174696F6E20706F696E740050EE
:1030F0006C6561736520636C65616E207468652022
:103100006E6F7A7A6C6520666F722063616C69629B
:10311000726174696F6E2E20436C69636B207768EF
:10312000656E20646F6E652E004175746F20686F48
:103130006D650078797A63616C5F6D656173737535
:1031400072655F656E7465720A0078797A63616C86
:103150005F73706972616C382063783D2564206309
:10316000793D2564207A303D256420647A3D2564CC
:10317000207261646975733D25642061643D256436
:103180000A0078797A63616C5F7365617263685A6B
:10319000206E6F207369676E616C0A20783D256C24
:1031A0006420793D256C64207A3D256C640A0020FA
:1031B0004F4E2D5349474E414C20617420783D2598
:1031C0006420793D2564207A3D25642061643D2595
:1031D000640A0078797A63616C5F73656172636811
:1031E0005A20783D256C6420793D256C64207A3D19
:1031F000256C640A000A00253032780078797A63F9
:10320000616C5F7363616E5F706978656C735F3367
:10321000327833322063783D25642063793D25641C
:10322000206D696E5F7A3D2564206D61785F7A3D1F
:1032300025640A00202532642025640A000A00253E
:1032400030327800206D696E3D2564206D61783DD7
:103250002564206469663D25640A006D61785F63BA
:103260003D253264206D61785F6C3D25640A006DF8
:1032700061785F633D2564206D61785F723D2564F0
:10328000206D61785F6D617463683D25640A00207C
:10329000783D256420793D2564207A3D25640A0027
:1032A000207061747465726E20666F756E64206143
:1032B000742025642025640A000000F000F801FC59
:1032C00003FE07FE07FE07FE07FC03F801F00000FF
:1032D0000073697A656F6628746F74616C293D2587
:1032E000640A0073697A656F6628626C6F636B5F4E
:1032F000627566666572293D25640A0078797A638D
:10330000616C5F6D656173737572655F6C65617625
:10331000650A00706F696E743D256420783D2564F0
:1033200020793D2564207A3D25640A005802580220
:10333000584D584DB004F055F055B00478797A6383
:10334000616C5F66696E645F6265645F696E647517
:103350006374696F6E5F73656E736F725F706F69B0
:103360006E745F787920783D256C6420793D256CFA
:1033700064207A3D256C640A00203C2000574152AD
:103380004E494E473A2046726F6E7420706F696ED8
:1033900074206E6F7420726561636861626C652E63
:1033A000205920636F6F7264696E6174653A000022
:1033B000000040410000C04000005C430000C040ED
:1033C00000005C43000046430000404100004643CB
:1033D000497465726174696F6E3A200043616C696B
:1033E00062726174696F6E206661696C6564212028
:1033F000436865636B20746865206178657320613C
:103400006E642072756E20616761696E2E0077327E
:1034100035783230636C5F63666D0A0077323578D9
:103420003230636C5F656E7465720A0020746F6F72
:10343000206C6F6E6720657874727573696F6E208B
:1034400070726576656E7465640020636F6C6420CD
:10345000657874727573696F6E2070726576656ECB
:1034600074656400593A005A3A002563252D3133BA
:103470002E313353252B352E33660020003E003E7F
:103480000020003E003E0054656D706572617475E9
:1034900072652063616C6962726174696F6E206627
:1034A00061696C65642E20436F6E74696E7565206A
:1034B00077697468207072657373696E67207468C9
:1034C00065206B6E6F622E0054656D70657261745D
:1034D0007572652063616C6962726174696F6E20D8
:1034E000646F6E652E20436F6E74696E756520770C
:1034F000697468207072657373696E67207468659B
:10350000206B6E6F622E0041646A757374696E671A
:10351000205A3A00526573657400526561722073D7
:10352000696465205B756D5D0046726F6E74207313
:103530006964655B756D5D005269676874207369C5
:1035400064655B756D5D004C6566742073696465C8
:10355000205B756D5D005365742074656D706572D8
:1035600061747572653A0054656D70657261747549
:1035700072652063616C6962726174696F6E206646
:1035800061696C65640054656D7065726174757213
:10359000652063616C6962726174696F6E20697322
:1035A0002066696E697368656420616E642061637A
:1035B000746976652E2054656D702E2063616C6988
:1035C00062726174696F6E2063616E20626520644F
:1035D000697361626C656420696E206D656E75202B
:1035E00053657474696E67732D3E54656D702E203B
:1035F00063616C2E0049523A0046494E44413A00FC
:1036000050494E44413A0053656E736F7220737493
:10361000617465002020300020203100544D43208B
:10362000445249564552204F56455254454D50003C
:1036300025632533642F25642563005A25362E32F1
:10364000662563005A2020202D2D2D20002563257E
:1036500033642525002D2D2D002533686864002551
:103660003353253373252500555342002020200075
:10367000205344002025753E257500203F3E2575CA
:1036800000204625750020463F00204630202000BF
:1036900025632D2D3A2D2D202000256325337568B7
:1036A0002025632563002563253032753A253032A5
:1036B000752563256300726573756C742076616C83
:1036C00075653A2025640A0020693D25326420632F
:1036D0006E743D2532642076616C3D2532640A00AB
:1036E000636C7573746572733A0A0020693D253204
:1036F0006420737465703D2532640A00736F7274C0
:1037000065642073616D706C65733A0A00252D370E
:1037100073003A200025642F3600252D32305300E7
:103720002020202020202020202020202020202099
:1037300020202000203A20002020202020202020AF
:1037400020202020202020202020202000252D3275
:103750003073002020202020202020202020202026
:103760000025730050494E44412048656174696EDC
:10377000670043616C6962726174696F6E20646F87
:103780006E650043616C6962726174696E67205A8C
:103790000042656420646F6E650042656420486580
:1037A0006174696E670048656174696E6720646F53
:1037B0006E652E0048656174696E670043726173BF
:1037C000680046696C616D2E2072756E6F7574733A
:1037D00000506F776572206661696C757265730061
:1037E0004C617374207072696E74206661696C75C7
:1037F00072657300546F74616C004C617374207057
:1038000072696E740050494E444100416D626965B1
:103810006E740042656C7420737461747573005625
:103820006F6C74616765730054656D706572617467
:10383000757265730042656C74207374617475737E
:103840000053656E736F7220696E666F0045787401
:10385000727564657220696E666F0058595A2063EC
:10386000616C2E2064657461696C7300756E6B6E9B
:103870006F776E004D4D553220636F6E6E656374C9
:10388000656400446174653A00686F77746F2E70E8
:103890007275736133642E636F6D00666F72756D40
:1038A0002E707275736133642E636F6D0070727564
:1038B000736133642E636F6D00746F20756E6C6F6F
:1038C00061642066696C616D656E7400746F206C54
:1038D0006F61642066696C616D656E74005072651D
:1038E000737320746865206B6E6F62003E43616E77
:1038F00063656C0050726568656174696E672074F9
:103900006F206375740050726568656174696E67D5
:1039100020746F20656A6563740050726568656124
:1039200074696E6720746F20756E6C6F61640050EF
:10393000726568656174696E6720746F206C6F6171
:103940006400436F6F6C646F776E005072656865DA
:10395000617420746865206E6F7A7A6C6521004509
:1039600052524F523A0046696C616D656E74206523
:103970007874727564696E67202620776974682090
:10398000636F727265637420636F6C6F723F004186
:1039900075746F6C6F6164696E672066696C616DC8
:1039A000656E74206973206163746976652C206A82
:1039B00075737420707265737320746865206B6E04
:1039C0006F6220616E6420696E736572742066692F
:1039D0006C616D656E742E2E2E005072696E7420AF
:1039E00074696D650046696C616D656E74207573F0
:1039F000656400546F74616C207072696E74207419
:103A0000696D6500546F74616C2066696C616D65E9
:103A10006E74005269676874004C656674005920C2
:103A200064697374616E63652066726F6D206D6981
:103A30006E0053657665726520736B65773A005347
:103A40006C6967687420736B65773A004D656173C4
:103A50007572656420736B6577005B303B305D2069
:103A6000706F696E74206F66667365740025530A03
:103A700020252D31362E313653252D33640A20254D
:103A80002D31362E313653252D33640A20252D371E
:103A90002E37535820252D336420205920252D33CF
:103AA000640020257325336401200A000A2049524E
:103AB000203A2020202020202025332E3166560059
:103AC000205057523A20202020202025342E3166C5
:103AD000560A204245443A20202020202025342E1A
:103AE0003166560025530A20582025640A205920A3
:103AF000256400466C617368416972204950204119
:103B00006464723A004D4D55322020202020202040
:103B10004E2F410025642E25642E25642D2564003A
:103B20002046573A0020756E6B6E6F776E20737467
:103B30006174650046696C2E2073656E736F722028
:103B4000762E3A004A756E20313020323032300005
:103B5000453344763666756C6C0045494E53795F43
:103B600031306100315F37356D6D5F4D4B33002D66
:103B70002D2D2D2D2D2D2D2D2D2D2D0020726570EF
:103B80006F20556E6B6E6F776E0020332E392E309E
:103B90002D33343231004669726D776172653A00B7
:103BA00025642E25642E25642E2564004D37303281
:103BB000004D373031004D373032004D3730310055
:103BC000464C4558202D20203234302F35300050BF
:103BD000502020202D20203235342F313030004825
:103BE000495053202D20203232302F3130300041C7
:103BF000425320202D20203235352F3130300041E6
:103C0000534120202D20203236302F3130350050C6
:103C1000455420202D20203233302F383500504C91
:103C20004120202D20203231352F3630006E6F7A22
:103C30007A6C65202D20203235302F30006661727D
:103C40006D2020202D20203235302F383000252DBA
:103C500031322E313253252B382E3166004578749F
:103C600072756465723A006D6D0059005800583ADB
:103C70000025533A0A2531382E32666D200A255325
:103C80003A0A2531306C6468202530326868646DEA
:103C900020253032686864730025533A0A2531388C
:103CA0002E32666D200A25533A0A2531306C646441
:103CB0002025303268686468202530326868646D79
:103CC0000025362E32666D6D0025533A0A25530ABB
:103CD00025533A0A25533A0025332E326601002532
:103CE000533A0A25530A252D31352E3135532533C4
:103CF0002E3266010A252D31352E31355325332ECE
:103D0000326601004578747275646572004D6F7695
:103D100065205A004D6F76652059004D6F766520FD
:103D20005800437261736820646574656374696FD9
:103D30006E2063616E0A6265207475726E65642020
:103D40006F6E206F6E6C7920696E0A4E6F726D61B6
:103D50006C206D6F6465005741524E494E473A0AD8
:103D6000437261736820646574656374696F6E0A79
:103D700064697361626C656420696E0A537465617D
:103D80006C7468206D6F6465004175746F6C6F6151
:103D900064696E672066696C616D656E742061761A
:103DA00061696C61626C65206F6E6C792077686503
:103DB0006E2066696C616D656E742073656E736FDD
:103DC00072206973207475726E6564206F6E2E2E7A
:103DD0002E004552524F523A2046696C616D656E15
:103DE000742073656E736F72206973206E6F742018
:103DF000726573706F6E64696E672C20706C65619C
:103E0000736520636865636B20636F6E6E656374B2
:103E1000696F6E2E004D6F6465206368616E676523
:103E200020696E2070726F6772657373202E2E2E5C
:103E30000043616C69627261746500536865657402
:103E400020252E37730A5A206F66667365743A20F0
:103E5000252B312E3366206D6D0A2563436F6E74FA
:103E6000696E75650A256353746172742066726F9A
:103E70006D207A65726F00506C65617365206C6FA0
:103E800061642066696C616D656E74206669727329
:103E9000742E0049732066696C616D656E74206CC8
:103EA0006F616465643F0043616E63656C004669E1
:103EB0006C616D656E740053656C65637420666932
:103EC0006C616D656E743A0052756E6E696E672036
:103ED00057697A6172642077696C6C2064656C65DF
:103EE00074652063757272656E742063616C6962BB
:103EF000726174696F6E20726573756C7473206182
:103F00006E642073746172742066726F6D207468C1
:103F10006520626567696E6E696E672E20436F6EFD
:103F200074696E75653F0050726568656174696E8D
:103F300067206E6F7A7A6C652E20506C65617365B0
:103F400020776169742E004C6F6164696E6720662A
:103F5000696C616D656E7400506C65617365206994
:103F60006E736572742066696C616D656E7420692C
:103F70006E746F20746865206578747275646572FC
:103F80002C207468656E2070726573732074686588
:103F9000206B6E6F6220746F206C6F616420697497
:103FA0002E00506C6561736520696E7365727420B4
:103FB00066696C616D656E7420696E746F207468DB
:103FC000652066697273742074756265206F66205F
:103FD000746865204D4D552C207468656E20707294
:103FE00065737320746865206B6E6F6220746F2038
:103FF0006C6F61642069742E00546865207072696A
:104000006E7465722077696C6C20737461727420B1
:104010007072696E74696E672061207A69672D7AA3
:104020006167206C696E652E20526F746174652023
:10403000746865206B6E6F6220756E74696C207990
:104040006F7520726561636820746865206F707495
:10405000696D616C206865696768742E20436865C6
:10406000636B207468652070696374757265732072
:10407000696E207468652068616E64626F6F6B2082
:104080002843616C6962726174696F6E2063686154
:1040900070746572292E0053656C656374207465B5
:1040A0006D706572617475726520776869636820E8
:1040B0006D61746368657320796F7572206D6174CA
:1040C000657269616C2E0043686F6F7365206120B3
:1040D00066696C616D656E7420666F7220746865C8
:1040E000204669727374204C617965722043616C5B
:1040F0006962726174696F6E20616E642073656CB1
:1041000065637420697420696E20746865206F6E21
:104110002D73637265656E206D656E752E004E6F32
:104120007720492077696C6C2063616C69627261E9
:1041300074652064697374616E6365206265747769
:1041400065656E20746970206F6620746865206EE6
:104150006F7A7A6C6520616E64206865617462654F
:104160006420737572666163652E00596F752063F4
:10417000616E20616C7761797320726573756D650E
:10418000207468652057697A6172642066726F6D69
:104190002043616C6962726174696F6E202D3E20EC
:1041A00057697A6172642E00506C65617365206393
:1041B0006865636B206F75722068616E64626F6FF3
:1041C0006B20616E64206669782074686520707267
:1041D0006F626C656D2E205468656E207265737514
:1041E0006D65207468652057697A61726420627910
:1041F000207265626F6F74696E67207468652070E5
:1042000072696E7465722E00416C6C206973206453
:104210006F6E652E204861707079207072696E74BF
:10422000696E672100496620796F7520686176653F
:10423000206164646974696F6E616C207374656574
:104240006C207368656574732C2063616C6962729D
:104250006174652074686569722070726573657435
:104260007320696E2053657474696E6773202D2006
:104270004857205365747570202D20537465656C04
:10428000207368656574732E00506C6561736520DA
:10429000636C65616E206865617462656420616E3F
:1042A00064207468656E207072657373207468652D
:1042B000206B6E6F622E00446F20796F75207761DE
:1042C0006E7420746F20726570656174206C617308
:1042D00074207374657020746F20726561646A75F0
:1042E00073742064697374616E63652062657477AA
:1042F00065656E206E6F7A7A6C6520616E642068E9
:104300006561746265643F0053656C656374206E1B
:104310006F7A7A6C65207072656865617420746567
:104320006D70657261747572652077686963682065
:104330006D61746368657320796F7572206D617447
:10434000657269616C2E0049732066696C616D65E8
:104350006E74206C6F616465643F00497320666908
:104360006C616D656E74206C6F616465643F004EB6
:104370006F7720492077696C6C2070726568656181
:1043800074206E6F7A7A6C6520666F7220504C4193
:104390002E00492077696C6C2072756E207A20633C
:1043A000616C6962726174696F6E206E6F772E0046
:1043B0004E6F772072656D6F766520746865207426
:1043C000657374207072696E742066726F6D2073ED
:1043D0007465656C2073686565742E00506C65614A
:1043E00073652072656D6F7665207368697070699A
:1043F0006E672068656C706572732066697273748D
:104400002E00492077696C6C2072756E2078797A5D
:104410002063616C6962726174696F6E206E6F7780
:104420002E2049742077696C6C2074616B65206163
:104430007070726F782E203132206D696E732E008D
:1044400046697273742C20492077696C6C207275F0
:104450006E207468652073656C667465737420746F
:104460006F20636865636B206D6F737420636F6D7D
:104470006D6F6E20617373656D626C792070726F01
:10448000626C656D732E0048692C204920616D2097
:10449000796F7572204F726967696E616C20507216
:1044A000757361206933207072696E7465722E2095
:1044B000576F756C6420796F75206C696B65206D22
:1044C0006520746F20677569646520796F75207445
:1044D00068726F756768207468652073657475709D
:1044E0002070726F636573733F00452D636F727246
:1044F0006563743A005A2D636F72726563743A0093
:10450000592D636F72726563743A00582D636F7230
:10451000726563743A0053706F6F6C4A6F696E0016
:10452000437574746572004669726D7761726500D7
:104530004D6F64656C0053747269637400576172E7
:104540006E00485720536574757000473830004D31
:104550003435004D3435205A004737360057697AD4
:104560006172642073746174653A2025640A00578F
:10457000697A61726420656E642073746174653A4F
:104580002025640A00456A6563742066696C616D64
:10459000656E74004375742066696C616D656E7438
:1045A00000506C656173652070756C6C206F75745C
:1045B0002066696C616D656E7420696D6D656469F6
:1045C0006174656C7900556E6C6F6164696E67200B
:1045D00066696C616D656E7400526573756D696EA8
:1045E00067207072696E740052657365740052655D
:1045F0006E616D65004669727374206C61796572D5
:104600002063616C2E0053656C65637400537465A0
:10461000656C207368656574730053686565740024
:10462000537570706F7274004661696C20737461A9
:104630007473204D4D55004661696C20737461742C
:104640007300537461746973746963732020004349
:10465000616C6962726174696F6E004175746F4C50
:104660006F61642066696C616D656E74004375747A
:104670002066696C616D656E7400456A65637420BF
:1046800066696C616D656E7400556E6C6F61642057
:1046900066696C616D656E74004C6F616420746F47
:1046A000206E6F7A7A6C65004C6F61642066696C6D
:1046B000616D656E74004E6F2053442063617264B7
:1046C000005072696E742066726F6D205344005200
:1046D0006573756D65207072696E740050617573D5
:1046E00065207072696E7400526573756D65207017
:1046F00072696E7400507265686561740054756EFD
:1047000065004C6976652061646A757374205A008F
:10471000496E666F2073637265656E0046696E69E7
:104720007368696E67206D6F76656D656E74730072
:104730004272696768746E6573730041737369735D
:10474000740053696C656E74004F6E6365004C6F46
:10475000756400536F756E64004D4D55204D6F6448
:1047600065004372617368206465742E005374653C
:10477000616C7468004E6F726D616C0046616E739F
:1047800020636865636B00506175736500436F6EED
:10479000742E00465320416374696F6E0046696C45
:1047A0002E2073656E736F72004368616E676520BB
:1047B00066696C616D656E7400466C6F770053704E
:1047C000656564004E2F41004D61676E657473200E
:1047D000636F6D702E004F6666004F6E005A2D702D
:1047E000726F6265206E722E004D657368005469A9
:1047F0006D656F757400427269676874004D6F640F
:1048000065004175746F0044696D004C6576656C98
:104810002044696D6D6564004C6576656C2042725C
:10482000696768740046616E207370656564004254
:104830006564004E6F7A7A6C650053657474696EB6
:104840006773004572723A205052494E54204641D7
:104850004E204552524F52004572723A20455854EC
:10486000522E2046414E204552524F52002F2F20AB
:10487000616374696F6E3A726573756D6564002566
:104880002D392E39535B002563252D31382E3138D3
:10489000732563004661726D206E756D62657200EE
:1048A0004D3630300024F4D43050C38E20C2A240A4
:1048B00017828B7011127A910D816CD90AA861E16F
:1048C00008C7586607615143061E4B5D05C145A7E1
:1048D000041A411104093D9803713931034036DB54
:1048E0000265339102D4305402802E1D02632CEEF7
:1048F00001752AC501B028A001102781018F256408
:10490000012B244B01E0223401AC211F018D200D2D
:1049100001801FFC00841EED00971DDF00B81CD233
:1049200000E61BC600201BBC00641AB200B219A826
:10493000000A19A0006A189900D117910040178B3E
:1049400000B516840031167E00B31579003A157350
:1049500000C7146F0058146A00EE136600881363D2
:104960000025135E00C7125B006C1257001512542D
:1049700000C111510070114F0021114B00D6104998
:10498000008D1047004610440002104200C00F4046
:1049900000800F3E00420F3C00060F3B00CB0E385C
:1049A00000930E37005C0E3500270E3400F30D32F5
:1049B00000C10D3100900D3000600D2E00320D2D24
:1049C00000050D2C00D90C2B00AE0C2900850C29FC
:1049D000005C0C2700350C27000E0C2600E80B2489
:1049E00000C40B2400A00B23007D0B23005A0B21D5
:1049F00000390B2100180B2000F80A1F00D90A1EED
:104A000000BB0A1E009D0A1D00800A1D00630A1CCF
:104A100000470A1B002C0A1B00110A1A00F7091A8A
:104A200000DD091900C4091900AB09190092091722
:104A3000007B091800630917004C09160036091697
:104A400000200916000A091500F5081500E00814F1
:104A500000CC081400B8081400A40814009008132F
:104A6000007D0812006B0813005808120046081257
:104A70000034081100230811001208110001081168
:104A800000F0071000E0071000D0071000C007106A
:104A900000B0070F00A107100091070E0083070F59
:104AA0000074070F0065070E0057070E0049070E38
:104AB000003B070D002E070E0020070D0013070D09
:104AC0000006070D00F9060C00ED060D00E0060CCF
:104AD00000D4060C00C8060C00BC060C00B0060C86
:104AE00000A4060B0099060C008D060B0082060B35
:104AF0000077060B006C060B0061060A0057060BD8
:104B0000004C060A0042060A0038060A002E060A71
:104B10000024060A001A060A001006090007060A01
:104B200000FD050900F4050900EB050900E205098F
:104B300000D9050900D0050900C7050900BE05090F
:104B400000B5050800AD050800A50509009C05088D
:104B500000940508008C050800840508007C050801
:104B600000740508006C050700650508005D050771
:104B700000560508004E05070047050700400508D8
:104B80000038050700310507002A0507002305073F
:104B9000001C050600160507000F0507000805069E
:104BA0000002050700FB040600F5040700EE0406FA
:104BB00000E8040600E2040700DB040600D5040652
:104BC00000CF040600C9040600C3040600BD0406A5
:104BD00000B7040600B1040500AC040600A60406F4
:104BE00000A00405009B040600950405009004063F
:104BF000008A04050085040500800406007A040587
:104C00000075040500700405006B040500660405CA
:104C100000610405005C040500570405005204050A
:104C2000004D04050048040500430405003E04044B
:104C3000003A04050035040500300404002C040586
:104C40000027040400230405001E0404001A0404C1
:104C50000016040500110404000D040400090405F5
:104C6000000404040000040400FC030400F803042E
:104C700000F4030400F0030400EC030400E8030460
:104C800000E4030400E0030400DC030400D8030490
:104C900000D4030400D0030400CC030400C80303C1
:104CA00000C503030024F404D9201BC40C5C0E9837
:104CB00004C4095F0265077101F405F900FB04B340
:104CC0000048048700C103690058035500030345E9
:104CD00000BE023A008402310053022A0029022554
:104CE0000004022000E4011C00C8011900AF0117F4
:104CF000009801140084011300710110006101107B
:104D00000051010E0043010D0036010B002B010B79
:104D10000020010B00150109000C01090003010826
:104D200000FB000800F3000800EB000700E40006A9
:104D300000DE000600D8000600D2000600CC000508
:104D400000C7000500C2000500BD000400B9000452
:104D500000B5000400B1000400AD000400A9000487
:104D600000A5000300A20003009F0004009B0003B5
:104D700000980003009500020093000300900003D8
:104D8000008D0002008B00030088000200860002F4
:104D90000084000300810002007F0002007D000209
:104DA000007B00020079000200770001007600021B
:104DB000007400020072000100710002006F000226
:104DC000006D0001006C0002006A00010069000231
:104DD0000067000100660001006500010064000238
:104DE000006200010061000100600001005F00023C
:104DF000005D0001005C0001005B0001005A000141
:104E00000059000100580001005700010056000140
:104E10000055000100540001005300000053000140
:104E2000005200010051000100500001004F00013C
:104E3000004E0000004E0001004D0001004C00013A
:104E4000004B0000004B0001004A00010049000136
:104E50000048000000480001004700010046000033
:104E6000004600010045000000450001004400012B
:104E70000043000000430001004200000042000126
:104E8000004100000041000100400001003F00001F
:104E9000003F0001003E0000003E0001003D000018
:104EA000003D0001003C0000003C0000003C00010F
:104EB000003B0000003B0001003A0000003A000106
:104EC00000390000003900010038000000380000FF
:104ED00000380001003700000037000100360000F4
:104EE00000360000003600010035000000350000EB
:104EF00000350001003400000034000000340001DF
:104F000000330000003300000033000100320000D5
:104F100000320000003200010031000000310000CA
:104F200000310001003000000030000000300001BE
:104F3000002F0000002F0000002F0000002F0001B4
:104F4000002E0000002E0000002E0001002D0000A9
:104F5000002D0000002D0000002D0001002C00009D
:104F6000002C0000002C0000002C0001002B000091
:104F7000002B0000002B0000002B0001002A000085
:104F8000002A0000002A0000002A00010029000079
:104F9000002900000029000000290000002900016C
:104FA0000028000000280000002800000028000061
:104FB0000028000100270000002700000027000053
:104FC0000027000000270001002600000026000046
:104FD0000026000000260000002600010025000039
:104FE000002500000025000000250000002500002D
:104FF000002500010024000000240000002400001F
:105000000024000000240001002300000023000011
:105010000023000000230000002300000023000004
:1050200000230001002200000022000000220000F6
:1050300000220000002200000022000100210000E8
:1050400000210000002100000021000000210000DC
:1050500000210000002100010020000000200000CD
:1050600000200000002000000020000000200000C0
:105070000020000000200001001F0000001F0000B1
:10508000001F0000001F0000001F0000001F0000A4
:10509000001F0001001E0000001E0000001E000096
:1050A000001E0000006001F4017001EA019001E0BF
:1050B00001B001D601D001CC010002C2013002B81A
:1050C000016002AE019002A401D0029A0120039077
:1050D0000170038601C0037C0130047201A00468E2
:1050E0000120055E01B005540160064A0120074019
:1050F00001F0073601F0082C01100A2201500B18AC
:1051000001C00C0E01500E04013010FA002012F004
:10511000005014E600C016DC007019D200501CC804
:1051200000501FBE007022B400B025AA00F028A0D5
:1051300000202C9600302F8C0010328200A0347892
:1051400000F0366E00E0386400803A5A00403B556B
:1051500000E03B5000F03C4600C03D3C00603E3269
:1051600000E03E2800303F1E00503F1900703F1401
:1051700000A03F0A00C03F0000D03FF6FFE03FEC38
:10518000FF45787472756465722066616E20737075
:10519000656564206973206C6F776572207468613F
:1051A0006E206578706563746564005072696E7412
:1051B0002066616E207370656564206973206C6F72
:1051C000776572207468616E2065787065637465B8
:1051D00064004572723A204D415854454D50003A92
:1051E000204578747275646572207377697463689A
:1051F0006564206F66662E204D415854454D502001
:105200007472696767657265642021004572723A3D
:10521000204D415854454D50204245440054656D41
:10522000706572617475726520686561746564206B
:10523000626564207377697463686564206F66666D
:105240002E204D415854454D502074726967676552
:10525000726564202100202D20496E76616C69649E
:10526000206578747275646572206E756D62657202
:1052700020210070012C0190012701B0012201C002
:10528000011D01F00118011002130130020E01602E
:1052900002090190020401C002FF000003FA00406D
:1052A00003F5008003F000D003EB002004E600705B
:1052B00004E100E004DC004005D700C005D2004056
:1052C00006CD00D006C8008007C3003008BE00F03D
:1052D00008B900C009B400B00AAF00B00BAA00D0F2
:1052E0000CA500000EA000500F9B00C010960050AF
:1052F00012910000148C00C0158700B0178200B016
:10530000197D00D01B7800001E730040206E0090B5
:10531000226900F024640040275F0090295A00E0D1
:105320002B5500102E500020304B0010324600E06C
:1053300033410090353C001037370070383200A000
:10534000392D00B03A2800A03B2300603C1E00101D
:105350003D1900903D1400103E0F00703E0A00C041
:105360003E0500003F000090137D00B0157800F06E
:10537000177300601A6E00F01C6900A01F640050D3
:10538000225F0020255A00E0275500902A50002077
:105390002D4B00A02F4600F031410010343C00F0AE
:1053A000353700A037320020392D00603A280070D0
:1053B0003B2300603C1E00203D1900C03D1400400E
:1053C0003E0F00A03E0A00F03E0500403F00007086
:1053D0003FFBFF903FF6FFB03FF1FFC03FECFFD037
:1053E0003FE7FFE03FE2FFF03FDDFFF03FD8FF2067
:1053F000484F54454E4420544845524D414C20524C
:10540000554E41574159002048454154424544209A
:10541000544845524D414C2052554E415741590038
:10542000544845524D414C2052554E415741590028
:1054300042454420544845524D414C2052554E411E
:105440005741590020544845524D414C2052554E29
:105450004157415920282050524548454154204841
:105460004F54454E44290020544845524D414C204C
:1054700052554E41574159202820505245484541E8
:10548000542048454154424544290050524548451E
:105490004154204552524F520042454420505245FB
:1054A00048454154204552524F5200577269746921
:1054B0006E6720746F2066696C653A200046696CDF
:1054C000652073656C6563746564002053697A6553
:1054D0003A200046696C65206F70656E65643A20FD
:1054E00000747279696E6720746F2063616C6C2040
:1054F0007375622D67636F64652066696C657320E0
:105500007769746820746F6F206D616E79206C65A7
:1055100076656C732E006F70656E206661696C65D0
:10552000642C2046696C653A20002E002E004E6FD8
:10553000772066726573682066696C653A20004E54
:105540006F7720646F696E672066696C653A20002A
:105550002220706F73002220706172656E743A228F
:1055600000535542524F5554494E452043414C4CEF
:10557000207461726765743A22002E004D32340047
:105580004D3233202573006175746F25692E6700D5
:1055900022206661696C65643A20427566666572B0
:1055A0002066756C6C2100456E717565696E6720AB
:1055B000746F207468652066726F6E743A202200E2
:1055C0004572726F723A002200456E717565696EA0
:1055D0006720746F207468652066726F6E743A205D
:1055E00022006563686F3A0001021020200808104D
:1055F0002040102040800201020108040201010243
:10560000040810204080804020100804020180041B
:105610000201804020100804020108040201010276
:105620000408102040800102040810204080100867
:1056300004088010204004408010204004800000B6
:105640002200250028002B002E003100340002012A
:105650000000050108010B010505050507050808FF
:105660000808020202020A0A0808040404040101EC
:105670000101010101010303030303030303040701
:1056800007070C0C0C0C0C0C0C0C02020202060698
:105690000606060606060B0B0B0B0B0B0B0B070780
:1056A0000A0A0A0A0A0A05050504040408086275BC
:1056B00073793A2070617573656420666F72206932
:1056C0006E70757400627573793A207061757365D8
:1056D0006420666F72207573657200627573793A23
:1056E0002070726F63657373696E670000007F439B
:1056F000008054430000524300000000000080C0BE
:105700009A99193E00000000000080C09A99193E45
:105710000000A0400000A0400000004025336420AD
:10572000737465703D253264206D73636E743D251E
:1057300034640A0000007F43008058439AD95143E3
:10574000FFFFFF67636F64655F4D3730312062652F
:1057500067696E0A00506C656173652072657374C9
:10576000617274004572723A204D494E54454D5055
:10577000003A204578747275646572207377697495
:1057800063686564206F66662E204D494E54454D12
:1057900050207472696767657265642021004572E4
:1057A000723A204D494E54454D50204245440054D4
:1057B000656D706572617475726520686561746588
:1057C0006420626564207377697463686564206F20
:1057D00066662E204D494E54454D502074726967BF
:1057E0006765726564202100746D63323133305F08
:1057F000686F6D655F656E74657228617865735F4B
:105800006D61736B3D307825303278290A00746DF4
:1058100063323133305F686F6D655F65786974201E
:10582000746D63323133305F73675F686F6D696EBB
:10583000675F617865735F6D61736B3D30782530AC
:1058400032780A005052555341334446570020796C
:10585000303D25640A002078303D25640A004F4B16
:105860000A004552524F522061643D25640A0020CF
:1058700020207A303D25640A00207A303D25640AD4
:10588000002079303D25640A002078303D25640AE7
:105890000078797A63616C5F66696E645F706F69C6
:1058A0006E745F63656E746572320A0000002100D9
:1058B000240027002A002D003000330001010000E1
:1058C000040107010A01000020002300260029002E
:1058D0002C002F0032000001000003010601090125
:1058E00000000A0B02090C0D0E080703040100005A
:1058F00000000000000000000000000000000000A8
:105900000000000000000000000000001211100064
:105910000000000000000000000000000000000087
:105920000000000000000000000000000000000077
:105930000000000000005072696E746572206E6F86
:105940007A7A6C65206469616D657465722064693A
:1059500066666572732066726F6D20746865204795
:105960002D636F64652E20506C65617365206368DC
:1059700065636B207468652076616C756520696E5F
:105980002073657474696E67732E205072696E742B
:105990002063616E63656C6C65642E005072696E85
:1059A000746572206E6F7A7A6C65206469616D65CA
:1059B00074657220646966666572732066726F6DC5
:1059C0002074686520472D636F64652E20436F6ED9
:1059D00074696E75653F0055534152543220727898
:1059E0002046756C6C2121210A0053657474696E20
:1059F00067732053746F7265640053746F726564CB
:105A00002073657474696E6773207265747269655A
:105A10007665640048617264636F64656420446500
:105A20006661756C742053657474696E6773204C7D
:105A30006F6164656400563200000000C8420000D7
:105A4000C8420000C8430080CF4300007A430000F2
:105A50007A43000040410000F042881300008813A0
:105A60000000C8000000102700000000AF44000044
:105A7000AF440000000000000000204E00000000C5
:105A8000204100002041CDCCCC3E000090400000E1
:105A900000000000000000000000CDCCCC3E3D0A1C
:105AA0008141FF08433EB099AB438F42FC42E65A26
:105AB000343F4C62B045000000000040400000341C
:105AC0004200000000000000000000004100000053
:105AD000E03F0000C8420000C84200004041000012
